S01700004763634170706C69636174696F6E312E737265635B
S11300000C942A000C943C000C943C000C943C008E
S11300100C943C000C943C000C943C000C943C006C
S11300200C943C000C943C000C943C000C943C005C
S11300300C943C000C9451000C943C000C943C0037
S11300400C943C000C943C000C943C000C943C003C
S11300500C943C0011241FBECFE5D8E0DEBFCDBF19
S113006020E0A0E6B0E001C01D92A236B207E1F79D
S11300700E9460000C94ED000C9400009C0140E090
S113008050E060E271EA87E090E00E949F00215016
S1130090310930BD29B988E98AB98EE880BD7894E0
S11300A008951F920F920FB60F9211248F938CB163
S11300B0809361008F910F900FBE0F901F90189541
S11300C081B3886381BB80E699E00E943E00809101
S11300D0610091EC980F953040F542B390E0CE97D3
S11300E021E030E0B90102C0660F771F8A95E2F77C
S11300F0CB01942F977C892B82BB60916100615462
S11301008091600090E00E94E000809160008F5F29
S113011080936000109261007FEF89E698E171504E
S113012080409040E1F700C000002FEF69E678E1DD
S1130130215060407040E1F700C00000C8CF052E98
S113014097FB1EF400940E94B60057FD07D00E944E
S1130150BE0007FC03D04EF40C94B60050954095B5
S1130160309521953F4F4F4F5F4F0895909580955F
S1130170709561957F4F8F4F9F4F0895A1E21A2E7E
S1130180AA1BBB1BFD010DC0AA1FBB1FEE1FFF1F37
S1130190A217B307E407F50720F0A21BB30BE40B87
S11301A0F50B661F771F881F991F1A9469F76095CE
S11301B07095809590959B01AC01BD01CF01089588
S11301C0262FE199FECF9FBB8EBB2DBB0FB6F894B3
S11101D0E29AE19A0FBE01960895F894FFCFCB
S9030000FC
